{
  "transactions": [
    {
      "hash": "0x47f17f9322c2c06b55e879dee54108ba87b9b8d12418ea462942613e7cfa9733",
      "transactionType": "CALL",
      "contractName": null,
      "contractAddress": "0x779877a7b0d9e8603169ddbd7836e478b4624789",
      "function": "transferAndCall(address,uint256,bytes)",
      "arguments": [
        "0x9DdfaCa8183c41ad55329BdeeD9F6A8d53168B1B",
        "3000000000000000000",
        "0xc6002279fd0ae00c64cc49115759c7a90de8838d55550929afad0674d8b99a37"
      ],
      "transaction": {
        "from": "0x7bae28e1f56f1a6602fec6290b0d81cdc6ccab65",
        "to": "0x779877a7b0d9e8603169ddbd7836e478b4624789",
        "gas": "0x1a8ee",
        "value": "0x0",
        "input": "0x4000aea00000000000000000000000009ddfaca8183c41ad55329bdeed9f6a8d53168b1b00000000000000000000000000000000000000000000000029a2241af62c000000000000000000000000000000000000000000000000000000000000000000600000000000000000000000000000000000000000000000000000000000000020c6002279fd0ae00c64cc49115759c7a90de8838d55550929afad0674d8b99a37",
        "nonce": "0x1e",
        "chainId": "0xaa36a7"
      },
      "additionalContracts": [],
      "isFixedGasLimit": false
    }
  ],
  "receipts": [
    {
      "status": "0x1",
      "cumulativeGasUsed": "0xd014b9",
      "logs": [
        {
          "address": "0x779877a7b0d9e8603169ddbd7836e478b4624789",
          "topics": [
            "0xddf252ad1be2c89b69c2b068fc378daa952ba7f163c4a11628f55a4df523b3ef",
            "0x0000000000000000000000007bae28e1f56f1a6602fec6290b0d81cdc6ccab65",
            "0x0000000000000000000000009ddfaca8183c41ad55329bdeed9f6a8d53168b1b"
          ],
          "data": "0x00000000000000000000000000000000000000000000000029a2241af62c0000",
          "blockHash": "0x82a10a9b511680b79d391132aae6fd7a0a218dbe65efc7d51abd88131018fab7",
          "blockNumber": "0x71e1ad",
          "transactionHash": "0x47f17f9322c2c06b55e879dee54108ba87b9b8d12418ea462942613e7cfa9733",
          "transactionIndex": "0x4b",
          "logIndex": "0xb8",
          "removed": false
        },
        {
          "address": "0x779877a7b0d9e8603169ddbd7836e478b4624789",
          "topics": [
            "0xe19260aff97b920c7df27010903aeb9c8d2be5d310a2c67824cf3f15396e4c16",
            "0x0000000000000000000000007bae28e1f56f1a6602fec6290b0d81cdc6ccab65",
            "0x0000000000000000000000009ddfaca8183c41ad55329bdeed9f6a8d53168b1b"
          ],
          "data": "0x00000000000000000000000000000000000000000000000029a2241af62c000000000000000000000000000000000000000000000000000000000000000000400000000000000000000000000000000000000000000000000000000000000020c6002279fd0ae00c64cc49115759c7a90de8838d55550929afad0674d8b99a37",
          "blockHash": "0x82a10a9b511680b79d391132aae6fd7a0a218dbe65efc7d51abd88131018fab7",
          "blockNumber": "0x71e1ad",
          "transactionHash": "0x47f17f9322c2c06b55e879dee54108ba87b9b8d12418ea462942613e7cfa9733",
          "transactionIndex": "0x4b",
          "logIndex": "0xb9",
          "removed": false
        },
        {
          "address": "0x9ddfaca8183c41ad55329bdeed9f6a8d53168b1b",
          "topics": [
            "0x1ced9348ff549fceab2ac57cd3a9de38edaaab274b725ee82c23e8fc8c4eec7a",
            "0xc6002279fd0ae00c64cc49115759c7a90de8838d55550929afad0674d8b99a37"
          ],
          "data": "0x000000000000000000000000000000000000000000000000000000000000000000000000000000000000000000000000000000000000000029a2241af62c0000",
          "blockHash": "0x82a10a9b511680b79d391132aae6fd7a0a218dbe65efc7d51abd88131018fab7",
          "blockNumber": "0x71e1ad",
          "transactionHash": "0x47f17f9322c2c06b55e879dee54108ba87b9b8d12418ea462942613e7cfa9733",
          "transactionIndex": "0x4b",
          "logIndex": "0xba",
          "removed": false
        }
      ],
      "logsBloom": "0x00000004000000000000001000000000000000000020000000000000020000000000000000000000000000000000000000200000000000000000000000000000000000000000000000000008000000000000000000000000000020000020000008000000000000000000000400000040000000000000000000000010000040000000000000000000000000010100800000000020001000000000000000000000000000000000000000000000010000000000000000000000000004000000000000000002000000000000000000000000000000000000000100000000000000000010000000000000800000000000000000000000000000000000000000000000",
      "type": "0x2",
      "transactionHash": "0x47f17f9322c2c06b55e879dee54108ba87b9b8d12418ea462942613e7cfa9733",
      "transactionIndex": "0x4b",
      "blockHash": "0x82a10a9b511680b79d391132aae6fd7a0a218dbe65efc7d51abd88131018fab7",
      "blockNumber": "0x71e1ad",
      "gasUsed": "0x133a5",
      "effectiveGasPrice": "0x2bc0fa05",
      "from": "0x7bae28e1f56f1a6602fec6290b0d81cdc6ccab65",
      "to": "0x779877a7b0d9e8603169ddbd7836e478b4624789",
      "contractAddress": null
    }
  ],
  "libraries": [],
  "pending": [],
  "returns": {},
  "timestamp": 1736540906,
  "chain": 11155111,
  "commit": "1a1e9f2"
}